{
  "_format": "hh-sol-artifact-1",
  "contractName": "Crowdsale",
  "sourceName": "contracts/Crowdsale.sol",
  "abi": [
    {
      "inputs": [
        {
          "internalType": "contract Token",
          "name": "_token",
          "type": "address"
        },
        {
          "internalType": "uint256",
          "name": "_price",
          "type": "uint256"
        },
        {
          "internalType": "uint256",
          "name": "_maxTokens",
          "type": "uint256"
        }
      ],
      "stateMutability": "nonpayable",
      "type": "constructor"
    },
    {
      "anonymous": false,
      "inputs": [
        {
          "indexed": false,
          "internalType": "uint256",
          "name": "amount",
          "type": "uint256"
        },
        {
          "indexed": false,
          "internalType": "address",
          "name": "buyer",
          "type": "address"
        }
      ],
      "name": "Buy",
      "type": "event"
    },
    {
      "anonymous": false,
      "inputs": [
        {
          "indexed": false,
          "internalType": "uint256",
          "name": "tokensSold",
          "type": "uint256"
        },
        {
          "indexed": false,
          "internalType": "uint256",
          "name": "ethRaised",
          "type": "uint256"
        }
      ],
      "name": "Finalize",
      "type": "event"
    },
    {
      "inputs": [
        {
          "internalType": "uint256",
          "name": "_amount",
          "type": "uint256"
        }
      ],
      "name": "buyTokens",
      "outputs": [],
      "stateMutability": "payable",
      "type": "function"
    },
    {
      "inputs": [],
      "name": "finalize",
      "outputs": [],
      "stateMutability": "nonpayable",
      "type": "function"
    },
    {
      "inputs": [],
      "name": "maxTokens",
      "outputs": [
        {
          "internalType": "uint256",
          "name": "",
          "type": "uint256"
        }
      ],
      "stateMutability": "view",
      "type": "function"
    },
    {
      "inputs": [],
      "name": "price",
      "outputs": [
        {
          "internalType": "uint256",
          "name": "",
          "type": "uint256"
        }
      ],
      "stateMutability": "view",
      "type": "function"
    },
    {
      "inputs": [
        {
          "internalType": "uint256",
          "name": "_price",
          "type": "uint256"
        }
      ],
      "name": "setPrice",
      "outputs": [],
      "stateMutability": "nonpayable",
      "type": "function"
    },
    {
      "inputs": [],
      "name": "token",
      "outputs": [
        {
          "internalType": "contract Token",
          "name": "",
          "type": "address"
        }
      ],
      "stateMutability": "view",
      "type": "function"
    },
    {
      "inputs": [],
      "name": "tokensSold",
      "outputs": [
        {
          "internalType": "uint256",
          "name": "",
          "type": "uint256"
        }
      ],
      "stateMutability": "view",
      "type": "function"
    },
    {
      "stateMutability": "payable",
      "type": "receive"
    }
  ],
  "bytecode": "0x608060405234801561001057600080fd5b50604051610d83380380610d8383398181016040528101906100329190610174565b336000806101000a81548173ffffffffffffffffffffffffffffffffffffffff021916908373ffffffffffffffffffffffffffffffffffffffff16021790555082600160006101000a81548173ffffffffffffffffffffffffffffffffffffffff021916908373ffffffffffffffffffffffffffffffffffffffff16021790555081600281905550806003819055505050506101c7565b600080fd5b600073ffffffffffffffffffffffffffffffffffffffff82169050919050565b60006100f9826100ce565b9050919050565b600061010b826100ee565b9050919050565b61011b81610100565b811461012657600080fd5b50565b60008151905061013881610112565b92915050565b6000819050919050565b6101518161013e565b811461015c57600080fd5b50565b60008151905061016e81610148565b92915050565b60008060006060848603121561018d5761018c6100c9565b5b600061019b86828701610129565b93505060206101ac8682870161015f565b92505060406101bd8682870161015f565b9150509250925092565b610bad806101d66000396000f3fe6080604052600436106100745760003560e01c806391b7f5ed1161004e57806391b7f5ed1461010c578063a035b1fe14610135578063e831574214610160578063fc0c546a1461018b576100a9565b80633610724e146100ae5780634bb278f3146100ca578063518ab2a8146100e1576100a9565b366100a957600060025434610089919061078d565b90506100a7670de0b6b3a7640000826100a291906107be565b6101b6565b005b600080fd5b6100c860048036038101906100c39190610831565b6101b6565b005b3480156100d657600080fd5b506100df610388565b005b3480156100ed57600080fd5b506100f6610655565b604051610103919061086d565b60405180910390f35b34801561011857600080fd5b50610133600480360381019061012e9190610831565b61065b565b005b34801561014157600080fd5b5061014a6106f3565b604051610157919061086d565b60405180910390f35b34801561016c57600080fd5b506101756106f9565b604051610182919061086d565b60405180910390f35b34801561019757600080fd5b506101a06106ff565b6040516101ad9190610907565b60405180910390f35b600254670de0b6b3a7640000826101cd919061078d565b6101d791906107be565b34146101e257600080fd5b80600160009054906101000a900473ffffffffffffffffffffffffffffffffffffffff1673ffffffffffffffffffffffffffffffffffffffff166370a08231306040518263ffffffff1660e01b815260040161023e9190610943565b602060405180830381865afa15801561025b573d6000803e3d6000fd5b505050506040513d601f19601f8201168201806040525081019061027f9190610973565b101561028a57600080fd5b600160009054906101000a900473ffffffffffffffffffffffffffffffffffffffff1673ffffffffffffffffffffffffffffffffffffffff1663a9059cbb33836040518363ffffffff1660e01b81526004016102e79291906109a0565b6020604051808303816000875af1158015610306573d6000803e3d6000fd5b505050506040513d601f19601f8201168201806040525081019061032a9190610a01565b61033357600080fd5b80600460008282546103459190610a2e565b925050819055507f7534e9c9396820aad756ba27f82162930f80bef863aabdf311e7dce26a79bccd813360405161037d929190610a62565b60405180910390a150565b60008054906101000a900473ffffffffffffffffffffffffffffffffffffffff1673ffffffffffffffffffffffffffffffffffffffff163373ffffffffffffffffffffffffffffffffffffffff1614610416576040517f08c379a000000000000000000000000000000000000000000000000000000000815260040161040d90610ae8565b60405180910390fd5b600160009054906101000a900473ffffffffffffffffffffffffffffffffffffffff1673ffffffffffffffffffffffffffffffffffffffff1663a9059cbb60008054906101000a900473ffffffffffffffffffffffffffffffffffffffff16600160009054906101000a900473ffffffffffffffffffffffffffffffffffffffff1673ffffffffffffffffffffffffffffffffffffffff166370a08231306040518263ffffffff1660e01b81526004016104d09190610943565b602060405180830381865afa1580156104ed573d6000803e3d6000fd5b505050506040513d601f19601f820116820180604052508101906105119190610973565b6040518363ffffffff1660e01b815260040161052e9291906109a0565b6020604051808303816000875af115801561054d573d6000803e3d6000fd5b505050506040513d601f19601f820116820180604052508101906105719190610a01565b61057a57600080fd5b600047905060008060009054906101000a900473ffffffffffffffffffffffffffffffffffffffff1673ffffffffffffffffffffffffffffffffffffffff16826040516105c690610b39565b60006040518083038185875af1925050503d8060008114610603576040519150601f19603f3d011682016040523d82523d6000602084013e610608565b606091505b505090508061061657600080fd5b7f9d3cb3e4bff976f636db6ed472093505eb1b5bafc234ea8276ae83b3ea0a8b7460045483604051610649929190610b4e565b60405180910390a15050565b60045481565b60008054906101000a900473ffffffffffffffffffffffffffffffffffffffff1673ffffffffffffffffffffffffffffffffffffffff163373ffffffffffffffffffffffffffffffffffffffff16146106e9576040517f08c379a00000000000000000000000000000000000000000000000000000000081526004016106e090610ae8565b60405180910390fd5b8060028190555050565b60025481565b60035481565b600160009054906101000a900473ffffffffffffffffffffffffffffffffffffffff1681565b6000819050919050565b7f4e487b7100000000000000000000000000000000000000000000000000000000600052601260045260246000fd5b7f4e487b7100000000000000000000000000000000000000000000000000000000600052601160045260246000fd5b600061079882610725565b91506107a383610725565b9250826107b3576107b261072f565b5b828204905092915050565b60006107c982610725565b91506107d483610725565b92508282026107e281610725565b915082820484148315176107f9576107f861075e565b5b5092915050565b600080fd5b61080e81610725565b811461081957600080fd5b50565b60008135905061082b81610805565b92915050565b60006020828403121561084757610846610800565b5b60006108558482850161081c565b91505092915050565b61086781610725565b82525050565b6000602082019050610882600083018461085e565b92915050565b600073ffffffffffffffffffffffffffffffffffffffff82169050919050565b6000819050919050565b60006108cd6108c86108c384610888565b6108a8565b610888565b9050919050565b60006108df826108b2565b9050919050565b60006108f1826108d4565b9050919050565b610901816108e6565b82525050565b600060208201905061091c60008301846108f8565b92915050565b600061092d82610888565b9050919050565b61093d81610922565b82525050565b60006020820190506109586000830184610934565b92915050565b60008151905061096d81610805565b92915050565b60006020828403121561098957610988610800565b5b60006109978482850161095e565b91505092915050565b60006040820190506109b56000830185610934565b6109c2602083018461085e565b9392505050565b60008115159050919050565b6109de816109c9565b81146109e957600080fd5b50565b6000815190506109fb816109d5565b92915050565b600060208284031215610a1757610a16610800565b5b6000610a25848285016109ec565b91505092915050565b6000610a3982610725565b9150610a4483610725565b9250828201905080821115610a5c57610a5b61075e565b5b92915050565b6000604082019050610a77600083018561085e565b610a846020830184610934565b9392505050565b600082825260208201905092915050565b7f43616c6c6572206973206e6f7420746865206f776e6572000000000000000000600082015250565b6000610ad2601783610a8b565b9150610add82610a9c565b602082019050919050565b60006020820190508181036000830152610b0181610ac5565b9050919050565b600081905092915050565b50565b6000610b23600083610b08565b9150610b2e82610b13565b600082019050919050565b6000610b4482610b16565b9150819050919050565b6000604082019050610b63600083018561085e565b610b70602083018461085e565b939250505056fea2646970667358221220885852793090bd3d0c37c3ae815ce212f4c20b62b68b188dcfa566ecfb5c050964736f6c634300081c0033",
  "linkReferences": {},
  "deployedLinkReferences": {}
}