{
  "_format": "hh-sol-artifact-1",
  "contractName": "Crowdsale",
  "sourceName": "contracts/Crowdsale.sol",
  "abi": [
    {
      "inputs": [
        {
          "internalType": "contract Token",
          "name": "_token",
          "type": "address"
        },
        {
          "internalType": "uint256",
          "name": "_price",
          "type": "uint256"
        },
        {
          "internalType": "uint256",
          "name": "_maxTokens",
          "type": "uint256"
        }
      ],
      "stateMutability": "nonpayable",
      "type": "constructor"
    },
    {
      "anonymous": false,
      "inputs": [
        {
          "indexed": false,
          "internalType": "uint256",
          "name": "amount",
          "type": "uint256"
        },
        {
          "indexed": false,
          "internalType": "address",
          "name": "buyer",
          "type": "address"
        }
      ],
      "name": "Buy",
      "type": "event"
    },
    {
      "anonymous": false,
      "inputs": [
        {
          "indexed": false,
          "internalType": "uint256",
          "name": "tokensSold",
          "type": "uint256"
        },
        {
          "indexed": false,
          "internalType": "uint256",
          "name": "ethRaised",
          "type": "uint256"
        }
      ],
      "name": "Finalize",
      "type": "event"
    },
    {
      "inputs": [
        {
          "internalType": "uint256",
          "name": "_amount",
          "type": "uint256"
        }
      ],
      "name": "buyTokens",
      "outputs": [],
      "stateMutability": "payable",
      "type": "function"
    },
    {
      "inputs": [],
      "name": "finalize",
      "outputs": [],
      "stateMutability": "nonpayable",
      "type": "function"
    },
    {
      "inputs": [],
      "name": "maxTokens",
      "outputs": [
        {
          "internalType": "uint256",
          "name": "",
          "type": "uint256"
        }
      ],
      "stateMutability": "view",
      "type": "function"
    },
    {
      "inputs": [],
      "name": "price",
      "outputs": [
        {
          "internalType": "uint256",
          "name": "",
          "type": "uint256"
        }
      ],
      "stateMutability": "view",
      "type": "function"
    },
    {
      "inputs": [
        {
          "internalType": "uint256",
          "name": "_price",
          "type": "uint256"
        }
      ],
      "name": "setPrice",
      "outputs": [],
      "stateMutability": "nonpayable",
      "type": "function"
    },
    {
      "inputs": [],
      "name": "token",
      "outputs": [
        {
          "internalType": "contract Token",
          "name": "",
          "type": "address"
        }
      ],
      "stateMutability": "view",
      "type": "function"
    },
    {
      "inputs": [],
      "name": "tokensSold",
      "outputs": [
        {
          "internalType": "uint256",
          "name": "",
          "type": "uint256"
        }
      ],
      "stateMutability": "view",
      "type": "function"
    },
    {
      "stateMutability": "payable",
      "type": "receive"
    }
  ],
  "bytecode": "0x60806040523480156200001157600080fd5b5060405162000e1838038062000e18833981810160405281019062000037919062000188565b336000806101000a81548173ffffffffffffffffffffffffffffffffffffffff021916908373ffffffffffffffffffffffffffffffffffffffff16021790555082600160006101000a81548173ffffffffffffffffffffffffffffffffffffffff021916908373ffffffffffffffffffffffffffffffffffffffff1602179055508160028190555080600381905550505050620001e4565b600080fd5b600073ffffffffffffffffffffffffffffffffffffffff82169050919050565b60006200010182620000d4565b9050919050565b60006200011582620000f4565b9050919050565b620001278162000108565b81146200013357600080fd5b50565b60008151905062000147816200011c565b92915050565b6000819050919050565b62000162816200014d565b81146200016e57600080fd5b50565b600081519050620001828162000157565b92915050565b600080600060608486031215620001a457620001a3620000cf565b5b6000620001b48682870162000136565b9350506020620001c78682870162000171565b9250506040620001da8682870162000171565b9150509250925092565b610c2480620001f46000396000f3fe6080604052600436106100745760003560e01c806391b7f5ed1161004e57806391b7f5ed1461010d578063a035b1fe14610136578063e831574214610161578063fc0c546a1461018c576100aa565b80633610724e146100af5780634bb278f3146100cb578063518ab2a8146100e2576100aa565b366100aa5760006002543461008991906107ca565b90506100a7670de0b6b3a7640000826100a291906107fb565b6101b7565b50005b600080fd5b6100c960048036038101906100c49190610886565b6101b7565b005b3480156100d757600080fd5b506100e06103a7565b005b3480156100ee57600080fd5b506100f7610692565b60405161010491906108c2565b60405180910390f35b34801561011957600080fd5b50610134600480360381019061012f9190610886565b610698565b005b34801561014257600080fd5b5061014b610730565b60405161015891906108c2565b60405180910390f35b34801561016d57600080fd5b50610176610736565b60405161018391906108c2565b60405180910390f35b34801561019857600080fd5b506101a161073c565b6040516101ae919061095c565b60405180910390f35b600254670de0b6b3a7640000826101ce91906107ca565b6101d891906107fb565b34146101e357600080fd5b80600160009054906101000a900473ffffffffffffffffffffffffffffffffffffffff1673ffffffffffffffffffffffffffffffffffffffff166370a08231306040518263ffffffff1660e01b815260040161023f9190610998565b60206040518083038186803b15801561025757600080fd5b505afa15801561026b573d6000803e3d6000fd5b505050506040513d601f19601f8201168201806040525081019061028f91906109c8565b101561029a57600080fd5b600160009054906101000a900473ffffffffffffffffffffffffffffffffffffffff1673ffffffffffffffffffffffffffffffffffffffff1663a9059cbb33836040518363ffffffff1660e01b81526004016102f79291906109f5565b602060405180830381600087803b15801561031157600080fd5b505af1158015610325573d6000803e3d6000fd5b505050506040513d601f19601f820116820180604052508101906103499190610a56565b61035257600080fd5b80600460008282546103649190610a83565b925050819055507f7534e9c9396820aad756ba27f82162930f80bef863aabdf311e7dce26a79bccd813360405161039c929190610ad9565b60405180910390a150565b60008054906101000a900473ffffffffffffffffffffffffffffffffffffffff1673ffffffffffffffffffffffffffffffffffffffff163373ffffffffffffffffffffffffffffffffffffffff1614610435576040517f08c379a000000000000000000000000000000000000000000000000000000000815260040161042c90610b5f565b60405180910390fd5b600160009054906101000a900473ffffffffffffffffffffffffffffffffffffffff1673ffffffffffffffffffffffffffffffffffffffff1663a9059cbb60008054906101000a900473ffffffffffffffffffffffffffffffffffffffff16600160009054906101000a900473ffffffffffffffffffffffffffffffffffffffff1673ffffffffffffffffffffffffffffffffffffffff166370a08231306040518263ffffffff1660e01b81526004016104ef9190610998565b60206040518083038186803b15801561050757600080fd5b505afa15801561051b573d6000803e3d6000fd5b505050506040513d601f19601f8201168201806040525081019061053f91906109c8565b6040518363ffffffff1660e01b815260040161055c9291906109f5565b602060405180830381600087803b15801561057657600080fd5b505af115801561058a573d6000803e3d6000fd5b505050506040513d601f19601f820116820180604052508101906105ae9190610a56565b6105b757600080fd5b600047905060008060009054906101000a900473ffffffffffffffffffffffffffffffffffffffff1673ffffffffffffffffffffffffffffffffffffffff168260405161060390610bb0565b60006040518083038185875af1925050503d8060008114610640576040519150601f19603f3d011682016040523d82523d6000602084013e610645565b606091505b505090508061065357600080fd5b7f9d3cb3e4bff976f636db6ed472093505eb1b5bafc234ea8276ae83b3ea0a8b7460045483604051610686929190610bc5565b60405180910390a15050565b60045481565b60008054906101000a900473ffffffffffffffffffffffffffffffffffffffff1673ffffffffffffffffffffffffffffffffffffffff163373ffffffffffffffffffffffffffffffffffffffff1614610726576040517f08c379a000000000000000000000000000000000000000000000000000000000815260040161071d90610b5f565b60405180910390fd5b8060028190555050565b60025481565b60035481565b600160009054906101000a900473ffffffffffffffffffffffffffffffffffffffff1681565b6000819050919050565b7f4e487b7100000000000000000000000000000000000000000000000000000000600052601260045260246000fd5b7f4e487b7100000000000000000000000000000000000000000000000000000000600052601160045260246000fd5b60006107d582610762565b91506107e083610762565b9250826107f0576107ef61076c565b5b828204905092915050565b600061080682610762565b915061081183610762565b9250817fffffffffffffffffffffffffffffffffffffffffffffffffffffffffffffffff048311821515161561084a5761084961079b565b5b828202905092915050565b600080fd5b61086381610762565b811461086e57600080fd5b50565b6000813590506108808161085a565b92915050565b60006020828403121561089c5761089b610855565b5b60006108aa84828501610871565b91505092915050565b6108bc81610762565b82525050565b60006020820190506108d760008301846108b3565b92915050565b600073ffffffffffffffffffffffffffffffffffffffff82169050919050565b6000819050919050565b600061092261091d610918846108dd565b6108fd565b6108dd565b9050919050565b600061093482610907565b9050919050565b600061094682610929565b9050919050565b6109568161093b565b82525050565b6000602082019050610971600083018461094d565b92915050565b6000610982826108dd565b9050919050565b61099281610977565b82525050565b60006020820190506109ad6000830184610989565b92915050565b6000815190506109c28161085a565b92915050565b6000602082840312156109de576109dd610855565b5b60006109ec848285016109b3565b91505092915050565b6000604082019050610a0a6000830185610989565b610a1760208301846108b3565b9392505050565b60008115159050919050565b610a3381610a1e565b8114610a3e57600080fd5b50565b600081519050610a5081610a2a565b92915050565b600060208284031215610a6c57610a6b610855565b5b6000610a7a84828501610a41565b91505092915050565b6000610a8e82610762565b9150610a9983610762565b9250827fffffffffffffffffffffffffffffffffffffffffffffffffffffffffffffffff03821115610ace57610acd61079b565b5b828201905092915050565b6000604082019050610aee60008301856108b3565b610afb6020830184610989565b9392505050565b600082825260208201905092915050565b7f43616c6c6572206973206e6f7420746865206f776e6572000000000000000000600082015250565b6000610b49601783610b02565b9150610b5482610b13565b602082019050919050565b60006020820190508181036000830152610b7881610b3c565b9050919050565b600081905092915050565b50565b6000610b9a600083610b7f565b9150610ba582610b8a565b600082019050919050565b6000610bbb82610b8d565b9150819050919050565b6000604082019050610bda60008301856108b3565b610be760208301846108b3565b939250505056fea2646970667358221220542031def45997054e4e34b9e699c57a36cefc30923ef5570a7686e3ce179e5264736f6c63430008090033",
  "linkReferences": {},
  "deployedLinkReferences": {}
}